:0C0AD100C0F9A4B0999282F88090FFBF99
:100A980008120000000000000000010E000109001B
:070AA800011100020F01F42F
:0D0AC300EFD3940040077E7DDEFE1F80F320
:010AD0002203
:1009150074D12513F582740A3512F583E493F580B5
:10092500C2A07F05120AC3D2A074D12515F5827421
:100935000A3514F583E493F580C2A17F05120AC335
:10094500D2A174D12517F582740A3516F583E4937F
:10095500F580C2A27F05120AC3D2A274D12519F56A
:1009650082740A3518F583E493F580C2A37F0512D6
:050975000AC3D2A32219
:100A3000C3EF94E8EE9403501DC374FF9FF50D744B
:100A4000FF9EF50CC374E99FFF74039EFEC3E49FF1
:070A5000F50BE49EF50A22FC
:100A7800D2A6C2A7758911E4F58CF58AD2AFD2A99E
:100A8800D28C758D4CF58BD2ABD28ED2A8D288225F
:10088C00751A0120B52D7F05120AC320B525B2B605
:10089C0030B5FDB2B6D3E51094B5E50F940340081E
:1008AC00750F037510C0800B74642510F510E435BA
:1008BC000FF50F20B42D7F05120AC320B425B2B654
:1008CC0030B4FDB2B6C3E5109432E50F9400500776
:1008DC00E4F50FF510800C749C2510F51074FF35A1
:1008EC000FF50F20B3137F05120AC320B30BB2B65A
:1008FC0030B3FDB2B6B2A6B2A7AE0FAF107C007D7E
:08090C006412097A8E128F13A8
:0109140022C0
:1009CF00120A78AF10AE0F120A30C290D2B6E509F4
:1009DF0075F00A84751600F517E50975F00A84AFEE
:1009EF00F07518008F1912088CAF10AE0F120A3065
:0509FF0012091580D96A
:03000300020AB03E
:100AB000050E20B00775140075150B3275140075FE
:030AC000150A32E2
:03000B00020A04E2
:040A0400C0E0C0D0BE
:100A0800C28CE508B4010E850B8AE50AF58CC2B7DD
:100A1800750800800C850D8AE50CF58CD2B7750831
:030A280001D28C6C
:050A2B00D0D0D0E03244
:03001B00020A577F
:100A5700C0E0C0D0758D4C758B000511E511B4034E
:100A67000B751100850E09750E00B290D0D0D0E03D
:010A7700324C
:03000000020800F3
:0C080000787FE4F6D8FD75811A020847E5
:10097A00BC000BBE0029EF8DF084FFADF022E4CC61
:10098A00F875F008EF2FFFEE33FEEC33FCEE9DEC2A
:10099A00984005FCEE9DFE0FD5F0E9E4CEFD22ED70
:1009AA00F8F5F0EE8420D21CFEADF075F008EF2FBA
:1009BA00FFED33FD4007985006D5F0F222C398FDAB
:0509CA000FD5F0EA2248
:10080C000209CFE493A3F8E493A34003F68001F22A
:10081C0008DFF48029E493A3F85407240CC8C333ED
:10082C00C4540F4420C8834004F456800146F6DFBC
:10083C00E4800B0102040810204080900A98E47EAA
:10084C00019360BCA3FF543F30E509541FFEE493B1
:10085C00A360010ECF54C025E060A840B8E493A378
:10086C00FAE493A3F8E493A3C8C582C8CAC583CAA3
:10087C00F0A3C8C582C8CAC583CADFE9DEE780BE5B
:010AAF000046
:00000001FF
